{
	"LOTTERY PROJECT/lottery.sol": {
		"Lottery": {
			"abi": [
				{
					"inputs": [],
					"stateMutability": "nonpayable",
					"type": "constructor"
				},
				{
					"inputs": [],
					"name": "getbalance",
					"outputs": [
						{
							"internalType": "uint256",
							"name": "",
							"type": "uint256"
						}
					],
					"stateMutability": "view",
					"type": "function"
				},
				{
					"inputs": [],
					"name": "manager",
					"outputs": [
						{
							"internalType": "address",
							"name": "",
							"type": "address"
						}
					],
					"stateMutability": "view",
					"type": "function"
				},
				{
					"inputs": [
						{
							"internalType": "uint256",
							"name": "",
							"type": "uint256"
						}
					],
					"name": "participants",
					"outputs": [
						{
							"internalType": "address payable",
							"name": "",
							"type": "address"
						}
					],
					"stateMutability": "view",
					"type": "function"
				},
				{
					"inputs": [],
					"name": "random",
					"outputs": [
						{
							"internalType": "uint256",
							"name": "",
							"type": "uint256"
						}
					],
					"stateMutability": "view",
					"type": "function"
				},
				{
					"inputs": [],
					"name": "selectrandom",
					"outputs": [
						{
							"internalType": "address",
							"name": "",
							"type": "address"
						}
					],
					"stateMutability": "view",
					"type": "function"
				},
				{
					"stateMutability": "payable",
					"type": "receive"
				}
			],
			"devdoc": {
				"kind": "dev",
				"methods": {},
				"version": 1
			},
			"evm": {
				"assembly": "    /* \"LOTTERY PROJECT/lottery.sol\":62:973  contract Lottery... */\n  mstore(0x40, 0x80)\n    /* \"LOTTERY PROJECT/lottery.sol\":162:218  constructor()... */\n  callvalue\n  dup1\n  iszero\n  tag_1\n  jumpi\n  0x00\n  dup1\n  revert\ntag_1:\n  pop\n    /* \"LOTTERY PROJECT/lottery.sol\":200:210  msg.sender */\n  caller\n    /* \"LOTTERY PROJECT/lottery.sol\":192:199  manager */\n  0x00\n  dup1\n    /* \"LOTTERY PROJECT/lottery.sol\":192:210  manager=msg.sender */\n  0x0100\n  exp\n  dup2\n  sload\n  dup2\n  0xffffffffffffffffffffffffffffffffffffffff\n  mul\n  not\n  and\n  swap1\n  dup4\n  0xffffffffffffffffffffffffffffffffffffffff\n  and\n  mul\n  or\n  swap1\n  sstore\n  pop\n    /* \"LOTTERY PROJECT/lottery.sol\":62:973  contract Lottery... */\n  dataSize(sub_0)\n  dup1\n  dataOffset(sub_0)\n  0x00\n  codecopy\n  0x00\n  return\nstop\n\nsub_0: assembly {\n        /* \"LOTTERY PROJECT/lottery.sol\":62:973  contract Lottery... */\n      mstore(0x40, 0x80)\n      jumpi(tag_1, lt(calldatasize, 0x04))\n      shr(0xe0, calldataload(0x00))\n      dup1\n      0x2645209f\n      eq\n      tag_3\n      jumpi\n      dup1\n      0x35c1d349\n      eq\n      tag_4\n      jumpi\n      dup1\n      0x481c6a75\n      eq\n      tag_5\n      jumpi\n      dup1\n      0x4d9b3d5d\n      eq\n      tag_6\n      jumpi\n      dup1\n      0x5ec01e4d\n      eq\n      tag_7\n      jumpi\n      jump(tag_2)\n    tag_1:\n      jumpi(tag_2, calldatasize)\n        /* \"LOTTERY PROJECT/lottery.sol\":288:295  1 ether */\n      0x0de0b6b3a7640000\n        /* \"LOTTERY PROJECT/lottery.sol\":277:286  msg.value */\n      callvalue\n        /* \"LOTTERY PROJECT/lottery.sol\":277:295  msg.value==1 ether */\n      eq\n        /* \"LOTTERY PROJECT/lottery.sol\":269:296  require(msg.value==1 ether) */\n      tag_10\n      jumpi\n      0x00\n      dup1\n      revert\n    tag_10:\n        /* \"LOTTERY PROJECT/lottery.sol\":307:319  participants */\n      0x01\n        /* \"LOTTERY PROJECT/lottery.sol\":333:343  msg.sender */\n      caller\n        /* \"LOTTERY PROJECT/lottery.sol\":307:345  participants.push(payable(msg.sender)) */\n      swap1\n      dup1\n      0x01\n      dup2\n      sload\n      add\n      dup1\n      dup3\n      sstore\n      dup1\n      swap2\n      pop\n      pop\n      0x01\n      swap1\n      sub\n      swap1\n      0x00\n      mstore\n      keccak256(0x00, 0x20)\n      add\n      0x00\n      swap1\n      swap2\n      swap1\n      swap2\n      swap1\n      swap2\n      0x0100\n      exp\n      dup2\n      sload\n      dup2\n      0xffffffffffffffffffffffffffffffffffffffff\n      mul\n      not\n      and\n      swap1\n      dup4\n      0xffffffffffffffffffffffffffffffffffffffff\n      and\n      mul\n      or\n      swap1\n      sstore\n      stop\n        /* \"LOTTERY PROJECT/lottery.sol\":62:973  contract Lottery... */\n    tag_2:\n      0x00\n      dup1\n      revert\n        /* \"LOTTERY PROJECT/lottery.sol\":678:970  function selectrandom() public view returns(address)... */\n    tag_3:\n      callvalue\n      dup1\n      iszero\n      tag_12\n      jumpi\n      0x00\n      dup1\n      revert\n    tag_12:\n      pop\n      tag_13\n      tag_14\n      jump\t// in\n    tag_13:\n      mload(0x40)\n      tag_15\n      swap2\n      swap1\n      tag_16\n      jump\t// in\n    tag_15:\n      mload(0x40)\n      dup1\n      swap2\n      sub\n      swap1\n      return\n        /* \"LOTTERY PROJECT/lottery.sol\":116:153  address payable[] public participants */\n    tag_4:\n      callvalue\n      dup1\n      iszero\n      tag_17\n      jumpi\n      0x00\n      dup1\n      revert\n    tag_17:\n      pop\n      tag_18\n      0x04\n      dup1\n      calldatasize\n      sub\n      dup2\n      add\n      swap1\n      tag_19\n      swap2\n      swap1\n      tag_20\n      jump\t// in\n    tag_19:\n      tag_21\n      jump\t// in\n    tag_18:\n      mload(0x40)\n      tag_22\n      swap2\n      swap1\n      tag_23\n      jump\t// in\n    tag_22:\n      mload(0x40)\n      dup1\n      swap2\n      sub\n      swap1\n      return\n        /* \"LOTTERY PROJECT/lottery.sol\":87:109  address public manager */\n    tag_5:\n      callvalue\n      dup1\n      iszero\n      tag_24\n      jumpi\n      0x00\n      dup1\n      revert\n    tag_24:\n      pop\n      tag_25\n      tag_26\n      jump\t// in\n    tag_25:\n      mload(0x40)\n      tag_27\n      swap2\n      swap1\n      tag_16\n      jump\t// in\n    tag_27:\n      mload(0x40)\n      dup1\n      swap2\n      sub\n      swap1\n      return\n        /* \"LOTTERY PROJECT/lottery.sol\":361:500  function getbalance() public view returns(uint)... */\n    tag_6:\n      callvalue\n      dup1\n      iszero\n      tag_28\n      jumpi\n      0x00\n      dup1\n      revert\n    tag_28:\n      pop\n      tag_29\n      tag_30\n      jump\t// in\n    tag_29:\n      mload(0x40)\n      tag_31\n      swap2\n      swap1\n      tag_32\n      jump\t// in\n    tag_31:\n      mload(0x40)\n      dup1\n      swap2\n      sub\n      swap1\n      return\n        /* \"LOTTERY PROJECT/lottery.sol\":508:670  function random() public view returns(uint)... */\n    tag_7:\n      callvalue\n      dup1\n      iszero\n      tag_33\n      jumpi\n      0x00\n      dup1\n      revert\n    tag_33:\n      pop\n      tag_34\n      tag_35\n      jump\t// in\n    tag_34:\n      mload(0x40)\n      tag_36\n      swap2\n      swap1\n      tag_32\n      jump\t// in\n    tag_36:\n      mload(0x40)\n      dup1\n      swap2\n      sub\n      swap1\n      return\n        /* \"LOTTERY PROJECT/lottery.sol\":678:970  function selectrandom() public view returns(address)... */\n    tag_14:\n        /* \"LOTTERY PROJECT/lottery.sol\":722:729  address */\n      0x00\n        /* \"LOTTERY PROJECT/lottery.sol\":767:774  manager */\n      dup1\n      0x00\n      swap1\n      sload\n      swap1\n      0x0100\n      exp\n      swap1\n      div\n      0xffffffffffffffffffffffffffffffffffffffff\n      and\n        /* \"LOTTERY PROJECT/lottery.sol\":755:774  msg.sender==manager */\n      0xffffffffffffffffffffffffffffffffffffffff\n      and\n        /* \"LOTTERY PROJECT/lottery.sol\":755:765  msg.sender */\n      caller\n        /* \"LOTTERY PROJECT/lottery.sol\":755:774  msg.sender==manager */\n      0xffffffffffffffffffffffffffffffffffffffff\n      and\n      eq\n        /* \"LOTTERY PROJECT/lottery.sol\":747:775  require(msg.sender==manager) */\n      tag_38\n      jumpi\n      0x00\n      dup1\n      revert\n    tag_38:\n        /* \"LOTTERY PROJECT/lottery.sol\":815:816  3 */\n      0x03\n        /* \"LOTTERY PROJECT/lottery.sol\":794:806  participants */\n      0x01\n        /* \"LOTTERY PROJECT/lottery.sol\":794:813  participants.length */\n      dup1\n      sload\n      swap1\n      pop\n        /* \"LOTTERY PROJECT/lottery.sol\":794:816  participants.length>=3 */\n      lt\n      iszero\n        /* \"LOTTERY PROJECT/lottery.sol\":786:817  require(participants.length>=3) */\n      tag_39\n      jumpi\n      0x00\n      dup1\n      revert\n    tag_39:\n        /* \"LOTTERY PROJECT/lottery.sol\":828:834  uint r */\n      0x00\n        /* \"LOTTERY PROJECT/lottery.sol\":835:843  random() */\n      tag_40\n        /* \"LOTTERY PROJECT/lottery.sol\":835:841  random */\n      tag_35\n        /* \"LOTTERY PROJECT/lottery.sol\":835:843  random() */\n      jump\t// in\n    tag_40:\n        /* \"LOTTERY PROJECT/lottery.sol\":828:843  uint r=random() */\n      swap1\n      pop\n        /* \"LOTTERY PROJECT/lottery.sol\":854:864  uint index */\n      0x00\n        /* \"LOTTERY PROJECT/lottery.sol\":871:883  participants */\n      0x01\n        /* \"LOTTERY PROJECT/lottery.sol\":871:890  participants.length */\n      dup1\n      sload\n      swap1\n      pop\n        /* \"LOTTERY PROJECT/lottery.sol\":867:868  r */\n      dup3\n        /* \"LOTTERY PROJECT/lottery.sol\":867:890  r % participants.length */\n      tag_41\n      swap2\n      swap1\n      tag_42\n      jump\t// in\n    tag_41:\n        /* \"LOTTERY PROJECT/lottery.sol\":854:890  uint index = r % participants.length */\n      swap1\n      pop\n        /* \"LOTTERY PROJECT/lottery.sol\":902:916  address winner */\n      0x00\n        /* \"LOTTERY PROJECT/lottery.sol\":919:931  participants */\n      0x01\n        /* \"LOTTERY PROJECT/lottery.sol\":932:937  index */\n      dup3\n        /* \"LOTTERY PROJECT/lottery.sol\":919:938  participants[index] */\n      dup2\n      sload\n      dup2\n      lt\n      tag_43\n      jumpi\n      tag_44\n      tag_45\n      jump\t// in\n    tag_44:\n    tag_43:\n      swap1\n      0x00\n      mstore\n      keccak256(0x00, 0x20)\n      add\n      0x00\n      swap1\n      sload\n      swap1\n      0x0100\n      exp\n      swap1\n      div\n      0xffffffffffffffffffffffffffffffffffffffff\n      and\n        /* \"LOTTERY PROJECT/lottery.sol\":902:938  address winner = participants[index] */\n      swap1\n      pop\n        /* \"LOTTERY PROJECT/lottery.sol\":956:962  winner */\n      dup1\n        /* \"LOTTERY PROJECT/lottery.sol\":949:962  return winner */\n      swap4\n      pop\n      pop\n      pop\n      pop\n        /* \"LOTTERY PROJECT/lottery.sol\":678:970  function selectrandom() public view returns(address)... */\n      swap1\n      jump\t// out\n        /* \"LOTTERY PROJECT/lottery.sol\":116:153  address payable[] public participants */\n    tag_21:\n      0x01\n      dup2\n      dup2\n      sload\n      dup2\n      lt\n      tag_47\n      jumpi\n      0x00\n      dup1\n      revert\n    tag_47:\n      swap1\n      0x00\n      mstore\n      keccak256(0x00, 0x20)\n      add\n      0x00\n      swap2\n      pop\n      sload\n      swap1\n      0x0100\n      exp\n      swap1\n      div\n      0xffffffffffffffffffffffffffffffffffffffff\n      and\n      dup2\n      jump\t// out\n        /* \"LOTTERY PROJECT/lottery.sol\":87:109  address public manager */\n    tag_26:\n      0x00\n      dup1\n      sload\n      swap1\n      0x0100\n      exp\n      swap1\n      div\n      0xffffffffffffffffffffffffffffffffffffffff\n      and\n      dup2\n      jump\t// out\n        /* \"LOTTERY PROJECT/lottery.sol\":361:500  function getbalance() public view returns(uint)... */\n    tag_30:\n        /* \"LOTTERY PROJECT/lottery.sol\":403:407  uint */\n      0x00\n        /* \"LOTTERY PROJECT/lottery.sol\":445:452  manager */\n      dup1\n      0x00\n      swap1\n      sload\n      swap1\n      0x0100\n      exp\n      swap1\n      div\n      0xffffffffffffffffffffffffffffffffffffffff\n      and\n        /* \"LOTTERY PROJECT/lottery.sol\":433:452  msg.sender==manager */\n      0xffffffffffffffffffffffffffffffffffffffff\n      and\n        /* \"LOTTERY PROJECT/lottery.sol\":433:443  msg.sender */\n      caller\n        /* \"LOTTERY PROJECT/lottery.sol\":433:452  msg.sender==manager */\n      0xffffffffffffffffffffffffffffffffffffffff\n      and\n      eq\n        /* \"LOTTERY PROJECT/lottery.sol\":425:453  require(msg.sender==manager) */\n      tag_50\n      jumpi\n      0x00\n      dup1\n      revert\n    tag_50:\n        /* \"LOTTERY PROJECT/lottery.sol\":471:492  address(this).balance */\n      selfbalance\n        /* \"LOTTERY PROJECT/lottery.sol\":464:492  return address(this).balance */\n      swap1\n      pop\n        /* \"LOTTERY PROJECT/lottery.sol\":361:500  function getbalance() public view returns(uint)... */\n      swap1\n      jump\t// out\n        /* \"LOTTERY PROJECT/lottery.sol\":508:670  function random() public view returns(uint)... */\n    tag_35:\n        /* \"LOTTERY PROJECT/lottery.sol\":546:550  uint */\n      0x00\n        /* \"LOTTERY PROJECT/lottery.sol\":607:623  block.difficulty */\n      difficulty\n        /* \"LOTTERY PROJECT/lottery.sol\":624:639  block.timestamp */\n      timestamp\n        /* \"LOTTERY PROJECT/lottery.sol\":640:652  participants */\n      0x01\n        /* \"LOTTERY PROJECT/lottery.sol\":640:659  participants.length */\n      dup1\n      sload\n      swap1\n      pop\n        /* \"LOTTERY PROJECT/lottery.sol\":590:660  abi.encodePacked(block.difficulty,block.timestamp,participants.length) */\n      add(0x20, mload(0x40))\n      tag_52\n      swap4\n      swap3\n      swap2\n      swap1\n      tag_53\n      jump\t// in\n    tag_52:\n      mload(0x40)\n      0x20\n      dup2\n      dup4\n      sub\n      sub\n      dup2\n      mstore\n      swap1\n      0x40\n      mstore\n        /* \"LOTTERY PROJECT/lottery.sol\":580:661  keccak256(abi.encodePacked(block.difficulty,block.timestamp,participants.length)) */\n      dup1\n      mload\n      swap1\n      0x20\n      add\n      keccak256\n        /* \"LOTTERY PROJECT/lottery.sol\":575:662  uint(keccak256(abi.encodePacked(block.difficulty,block.timestamp,participants.length))) */\n      0x00\n      shr\n        /* \"LOTTERY PROJECT/lottery.sol\":568:662  return uint(keccak256(abi.encodePacked(block.difficulty,block.timestamp,participants.length))) */\n      swap1\n      pop\n        /* \"LOTTERY PROJECT/lottery.sol\":508:670  function random() public view returns(uint)... */\n      swap1\n      jump\t// out\n        /* \"#utility.yul\":7:133   */\n    tag_54:\n        /* \"#utility.yul\":44:51   */\n      0x00\n        /* \"#utility.yul\":84:126   */\n      0xffffffffffffffffffffffffffffffffffffffff\n        /* \"#utility.yul\":77:82   */\n      dup3\n        /* \"#utility.yul\":73:127   */\n      and\n        /* \"#utility.yul\":62:127   */\n      swap1\n      pop\n        /* \"#utility.yul\":7:133   */\n      swap2\n      swap1\n      pop\n      jump\t// out\n        /* \"#utility.yul\":139:235   */\n    tag_55:\n        /* \"#utility.yul\":176:183   */\n      0x00\n        /* \"#utility.yul\":205:229   */\n      tag_72\n        /* \"#utility.yul\":223:228   */\n      dup3\n        /* \"#utility.yul\":205:229   */\n      tag_54\n      jump\t// in\n    tag_72:\n        /* \"#utility.yul\":194:229   */\n      swap1\n      pop\n        /* \"#utility.yul\":139:235   */\n      swap2\n      swap1\n      pop\n      jump\t// out\n        /* \"#utility.yul\":241:359   */\n    tag_56:\n        /* \"#utility.yul\":328:352   */\n      tag_74\n        /* \"#utility.yul\":346:351   */\n      dup2\n        /* \"#utility.yul\":328:352   */\n      tag_55\n      jump\t// in\n    tag_74:\n        /* \"#utility.yul\":323:326   */\n      dup3\n        /* \"#utility.yul\":316:353   */\n      mstore\n        /* \"#utility.yul\":241:359   */\n      pop\n      pop\n      jump\t// out\n        /* \"#utility.yul\":365:587   */\n    tag_16:\n        /* \"#utility.yul\":458:462   */\n      0x00\n        /* \"#utility.yul\":496:498   */\n      0x20\n        /* \"#utility.yul\":485:494   */\n      dup3\n        /* \"#utility.yul\":481:499   */\n      add\n        /* \"#utility.yul\":473:499   */\n      swap1\n      pop\n        /* \"#utility.yul\":509:580   */\n      tag_76\n        /* \"#utility.yul\":577:578   */\n      0x00\n        /* \"#utility.yul\":566:575   */\n      dup4\n        /* \"#utility.yul\":562:579   */\n      add\n        /* \"#utility.yul\":553:559   */\n      dup5\n        /* \"#utility.yul\":509:580   */\n      tag_56\n      jump\t// in\n    tag_76:\n        /* \"#utility.yul\":365:587   */\n      swap3\n      swap2\n      pop\n      pop\n      jump\t// out\n        /* \"#utility.yul\":674:791   */\n    tag_58:\n        /* \"#utility.yul\":783:784   */\n      0x00\n        /* \"#utility.yul\":780:781   */\n      dup1\n        /* \"#utility.yul\":773:785   */\n      revert\n        /* \"#utility.yul\":920:997   */\n    tag_60:\n        /* \"#utility.yul\":957:964   */\n      0x00\n        /* \"#utility.yul\":986:991   */\n      dup2\n        /* \"#utility.yul\":975:991   */\n      swap1\n      pop\n        /* \"#utility.yul\":920:997   */\n      swap2\n      swap1\n      pop\n      jump\t// out\n        /* \"#utility.yul\":1003:1125   */\n    tag_61:\n        /* \"#utility.yul\":1076:1100   */\n      tag_82\n        /* \"#utility.yul\":1094:1099   */\n      dup2\n        /* \"#utility.yul\":1076:1100   */\n      tag_60\n      jump\t// in\n    tag_82:\n        /* \"#utility.yul\":1069:1074   */\n      dup2\n        /* \"#utility.yul\":1066:1101   */\n      eq\n        /* \"#utility.yul\":1056:1119   */\n      tag_83\n      jumpi\n        /* \"#utility.yul\":1115:1116   */\n      0x00\n        /* \"#utility.yul\":1112:1113   */\n      dup1\n        /* \"#utility.yul\":1105:1117   */\n      revert\n        /* \"#utility.yul\":1056:1119   */\n    tag_83:\n        /* \"#utility.yul\":1003:1125   */\n      pop\n      jump\t// out\n        /* \"#utility.yul\":1131:1270   */\n    tag_62:\n        /* \"#utility.yul\":1177:1182   */\n      0x00\n        /* \"#utility.yul\":1215:1221   */\n      dup2\n        /* \"#utility.yul\":1202:1222   */\n      calldataload\n        /* \"#utility.yul\":1193:1222   */\n      swap1\n      pop\n        /* \"#utility.yul\":1231:1264   */\n      tag_85\n        /* \"#utility.yul\":1258:1263   */\n      dup2\n        /* \"#utility.yul\":1231:1264   */\n      tag_61\n      jump\t// in\n    tag_85:\n        /* \"#utility.yul\":1131:1270   */\n      swap3\n      swap2\n      pop\n      pop\n      jump\t// out\n        /* \"#utility.yul\":1276:1605   */\n    tag_20:\n        /* \"#utility.yul\":1335:1341   */\n      0x00\n        /* \"#utility.yul\":1384:1386   */\n      0x20\n        /* \"#utility.yul\":1372:1381   */\n      dup3\n        /* \"#utility.yul\":1363:1370   */\n      dup5\n        /* \"#utility.yul\":1359:1382   */\n      sub\n        /* \"#utility.yul\":1355:1387   */\n      slt\n        /* \"#utility.yul\":1352:1471   */\n      iszero\n      tag_87\n      jumpi\n        /* \"#utility.yul\":1390:1469   */\n      tag_88\n      tag_58\n      jump\t// in\n    tag_88:\n        /* \"#utility.yul\":1352:1471   */\n    tag_87:\n        /* \"#utility.yul\":1510:1511   */\n      0x00\n        /* \"#utility.yul\":1535:1588   */\n      tag_89\n        /* \"#utility.yul\":1580:1587   */\n      dup5\n        /* \"#utility.yul\":1571:1577   */\n      dup3\n        /* \"#utility.yul\":1560:1569   */\n      dup6\n        /* \"#utility.yul\":1556:1578   */\n      add\n        /* \"#utility.yul\":1535:1588   */\n      tag_62\n      jump\t// in\n    tag_89:\n        /* \"#utility.yul\":1525:1588   */\n      swap2\n      pop\n        /* \"#utility.yul\":1481:1598   */\n      pop\n        /* \"#utility.yul\":1276:1605   */\n      swap3\n      swap2\n      pop\n      pop\n      jump\t// out\n        /* \"#utility.yul\":1611:1715   */\n    tag_63:\n        /* \"#utility.yul\":1656:1663   */\n      0x00\n        /* \"#utility.yul\":1685:1709   */\n      tag_91\n        /* \"#utility.yul\":1703:1708   */\n      dup3\n        /* \"#utility.yul\":1685:1709   */\n      tag_54\n      jump\t// in\n    tag_91:\n        /* \"#utility.yul\":1674:1709   */\n      swap1\n      pop\n        /* \"#utility.yul\":1611:1715   */\n      swap2\n      swap1\n      pop\n      jump\t// out\n        /* \"#utility.yul\":1721:1863   */\n    tag_64:\n        /* \"#utility.yul\":1824:1856   */\n      tag_93\n        /* \"#utility.yul\":1850:1855   */\n      dup2\n        /* \"#utility.yul\":1824:1856   */\n      tag_63\n      jump\t// in\n    tag_93:\n        /* \"#utility.yul\":1819:1822   */\n      dup3\n        /* \"#utility.yul\":1812:1857   */\n      mstore\n        /* \"#utility.yul\":1721:1863   */\n      pop\n      pop\n      jump\t// out\n        /* \"#utility.yul\":1869:2123   */\n    tag_23:\n        /* \"#utility.yul\":1978:1982   */\n      0x00\n        /* \"#utility.yul\":2016:2018   */\n      0x20\n        /* \"#utility.yul\":2005:2014   */\n      dup3\n        /* \"#utility.yul\":2001:2019   */\n      add\n        /* \"#utility.yul\":1993:2019   */\n      swap1\n      pop\n        /* \"#utility.yul\":2029:2116   */\n      tag_95\n        /* \"#utility.yul\":2113:2114   */\n      0x00\n        /* \"#utility.yul\":2102:2111   */\n      dup4\n        /* \"#utility.yul\":2098:2115   */\n      add\n        /* \"#utility.yul\":2089:2095   */\n      dup5\n        /* \"#utility.yul\":2029:2116   */\n      tag_64\n      jump\t// in\n    tag_95:\n        /* \"#utility.yul\":1869:2123   */\n      swap3\n      swap2\n      pop\n      pop\n      jump\t// out\n        /* \"#utility.yul\":2129:2247   */\n    tag_65:\n        /* \"#utility.yul\":2216:2240   */\n      tag_97\n        /* \"#utility.yul\":2234:2239   */\n      dup2\n        /* \"#utility.yul\":2216:2240   */\n      tag_60\n      jump\t// in\n    tag_97:\n        /* \"#utility.yul\":2211:2214   */\n      dup3\n        /* \"#utility.yul\":2204:2241   */\n      mstore\n        /* \"#utility.yul\":2129:2247   */\n      pop\n      pop\n      jump\t// out\n        /* \"#utility.yul\":2253:2475   */\n    tag_32:\n        /* \"#utility.yul\":2346:2350   */\n      0x00\n        /* \"#utility.yul\":2384:2386   */\n      0x20\n        /* \"#utility.yul\":2373:2382   */\n      dup3\n        /* \"#utility.yul\":2369:2387   */\n      add\n        /* \"#utility.yul\":2361:2387   */\n      swap1\n      pop\n        /* \"#utility.yul\":2397:2468   */\n      tag_99\n        /* \"#utility.yul\":2465:2466   */\n      0x00\n        /* \"#utility.yul\":2454:2463   */\n      dup4\n        /* \"#utility.yul\":2450:2467   */\n      add\n        /* \"#utility.yul\":2441:2447   */\n      dup5\n        /* \"#utility.yul\":2397:2468   */\n      tag_65\n      jump\t// in\n    tag_99:\n        /* \"#utility.yul\":2253:2475   */\n      swap3\n      swap2\n      pop\n      pop\n      jump\t// out\n        /* \"#utility.yul\":2481:2661   */\n    tag_66:\n        /* \"#utility.yul\":2529:2606   */\n      0x4e487b7100000000000000000000000000000000000000000000000000000000\n        /* \"#utility.yul\":2526:2527   */\n      0x00\n        /* \"#utility.yul\":2519:2607   */\n      mstore\n        /* \"#utility.yul\":2626:2630   */\n      0x12\n        /* \"#utility.yul\":2623:2624   */\n      0x04\n        /* \"#utility.yul\":2616:2631   */\n      mstore\n        /* \"#utility.yul\":2650:2654   */\n      0x24\n        /* \"#utility.yul\":2647:2648   */\n      0x00\n        /* \"#utility.yul\":2640:2655   */\n      revert\n        /* \"#utility.yul\":2667:2843   */\n    tag_42:\n        /* \"#utility.yul\":2699:2700   */\n      0x00\n        /* \"#utility.yul\":2716:2736   */\n      tag_102\n        /* \"#utility.yul\":2734:2735   */\n      dup3\n        /* \"#utility.yul\":2716:2736   */\n      tag_60\n      jump\t// in\n    tag_102:\n        /* \"#utility.yul\":2711:2736   */\n      swap2\n      pop\n        /* \"#utility.yul\":2750:2770   */\n      tag_103\n        /* \"#utility.yul\":2768:2769   */\n      dup4\n        /* \"#utility.yul\":2750:2770   */\n      tag_60\n      jump\t// in\n    tag_103:\n        /* \"#utility.yul\":2745:2770   */\n      swap3\n      pop\n        /* \"#utility.yul\":2789:2790   */\n      dup3\n        /* \"#utility.yul\":2779:2814   */\n      tag_104\n      jumpi\n        /* \"#utility.yul\":2794:2812   */\n      tag_105\n      tag_66\n      jump\t// in\n    tag_105:\n        /* \"#utility.yul\":2779:2814   */\n    tag_104:\n        /* \"#utility.yul\":2835:2836   */\n      dup3\n        /* \"#utility.yul\":2832:2833   */\n      dup3\n        /* \"#utility.yul\":2828:2837   */\n      mod\n        /* \"#utility.yul\":2823:2837   */\n      swap1\n      pop\n        /* \"#utility.yul\":2667:2843   */\n      swap3\n      swap2\n      pop\n      pop\n      jump\t// out\n        /* \"#utility.yul\":2849:3029   */\n    tag_45:\n        /* \"#utility.yul\":2897:2974   */\n      0x4e487b7100000000000000000000000000000000000000000000000000000000\n        /* \"#utility.yul\":2894:2895   */\n      0x00\n        /* \"#utility.yul\":2887:2975   */\n      mstore\n        /* \"#utility.yul\":2994:2998   */\n      0x32\n        /* \"#utility.yul\":2991:2992   */\n      0x04\n        /* \"#utility.yul\":2984:2999   */\n      mstore\n        /* \"#utility.yul\":3018:3022   */\n      0x24\n        /* \"#utility.yul\":3015:3016   */\n      0x00\n        /* \"#utility.yul\":3008:3023   */\n      revert\n        /* \"#utility.yul\":3035:3114   */\n    tag_67:\n        /* \"#utility.yul\":3074:3081   */\n      0x00\n        /* \"#utility.yul\":3103:3108   */\n      dup2\n        /* \"#utility.yul\":3092:3108   */\n      swap1\n      pop\n        /* \"#utility.yul\":3035:3114   */\n      swap2\n      swap1\n      pop\n      jump\t// out\n        /* \"#utility.yul\":3120:3277   */\n    tag_68:\n        /* \"#utility.yul\":3225:3270   */\n      tag_109\n        /* \"#utility.yul\":3245:3269   */\n      tag_110\n        /* \"#utility.yul\":3263:3268   */\n      dup3\n        /* \"#utility.yul\":3245:3269   */\n      tag_60\n      jump\t// in\n    tag_110:\n        /* \"#utility.yul\":3225:3270   */\n      tag_67\n      jump\t// in\n    tag_109:\n        /* \"#utility.yul\":3220:3223   */\n      dup3\n        /* \"#utility.yul\":3213:3271   */\n      mstore\n        /* \"#utility.yul\":3120:3277   */\n      pop\n      pop\n      jump\t// out\n        /* \"#utility.yul\":3283:3821   */\n    tag_53:\n        /* \"#utility.yul\":3451:3454   */\n      0x00\n        /* \"#utility.yul\":3466:3541   */\n      tag_112\n        /* \"#utility.yul\":3537:3540   */\n      dup3\n        /* \"#utility.yul\":3528:3534   */\n      dup7\n        /* \"#utility.yul\":3466:3541   */\n      tag_68\n      jump\t// in\n    tag_112:\n        /* \"#utility.yul\":3566:3568   */\n      0x20\n        /* \"#utility.yul\":3561:3564   */\n      dup3\n        /* \"#utility.yul\":3557:3569   */\n      add\n        /* \"#utility.yul\":3550:3569   */\n      swap2\n      pop\n        /* \"#utility.yul\":3579:3654   */\n      tag_113\n        /* \"#utility.yul\":3650:3653   */\n      dup3\n        /* \"#utility.yul\":3641:3647   */\n      dup6\n        /* \"#utility.yul\":3579:3654   */\n      tag_68\n      jump\t// in\n    tag_113:\n        /* \"#utility.yul\":3679:3681   */\n      0x20\n        /* \"#utility.yul\":3674:3677   */\n      dup3\n        /* \"#utility.yul\":3670:3682   */\n      add\n        /* \"#utility.yul\":3663:3682   */\n      swap2\n      pop\n        /* \"#utility.yul\":3692:3767   */\n      tag_114\n        /* \"#utility.yul\":3763:3766   */\n      dup3\n        /* \"#utility.yul\":3754:3760   */\n      dup5\n        /* \"#utility.yul\":3692:3767   */\n      tag_68\n      jump\t// in\n    tag_114:\n        /* \"#utility.yul\":3792:3794   */\n      0x20\n        /* \"#utility.yul\":3787:3790   */\n      dup3\n        /* \"#utility.yul\":3783:3795   */\n      add\n        /* \"#utility.yul\":3776:3795   */\n      swap2\n      pop\n        /* \"#utility.yul\":3812:3815   */\n      dup2\n        /* \"#utility.yul\":3805:3815   */\n      swap1\n      pop\n        /* \"#utility.yul\":3283:3821   */\n      swap5\n      swap4\n      pop\n      pop\n      pop\n      pop\n      jump\t// out\n\n    auxdata: 0xa264697066735822122000a08fa9f1886c447801973865a76b0ebcc553909b9d6952143cbf5e587b84aa64736f6c63430008110033\n}\n",
				"bytecode": {
					"linkReferences": {},
					"object": "608060405234801561001057600080fd5b50336000806101000a81548173ffffffffffffffffffffffffffffffffffffffff021916908373ffffffffffffffffffffffffffffffffffffffff1602179055506105df806100606000396000f3fe60806040526004361061004e5760003560e01c80632645209f146100d057806335c1d349146100fb578063481c6a75146101385780634d9b3d5d146101635780635ec01e4d1461018e576100cb565b366100cb57670de0b6b3a7640000341461006757600080fd5b6001339080600181540180825580915050600190039060005260206000200160009091909190916101000a81548173ffffffffffffffffffffffffffffffffffffffff021916908373ffffffffffffffffffffffffffffffffffffffff1602179055005b600080fd5b3480156100dc57600080fd5b506100e56101b9565b6040516100f291906103d3565b60405180910390f35b34801561010757600080fd5b50610122600480360381019061011d9190610429565b610294565b60405161012f9190610477565b60405180910390f35b34801561014457600080fd5b5061014d6102d3565b60405161015a91906103d3565b60405180910390f35b34801561016f57600080fd5b506101786102f7565b60405161018591906104a1565b60405180910390f35b34801561019a57600080fd5b506101a3610358565b6040516101b091906104a1565b60405180910390f35b60008060009054906101000a900473ffffffffffffffffffffffffffffffffffffffff1673ffffffffffffffffffffffffffffffffffffffff163373ffffffffffffffffffffffffffffffffffffffff161461021457600080fd5b6003600180549050101561022757600080fd5b6000610231610358565b905060006001805490508261024691906104eb565b905060006001828154811061025e5761025d61051c565b5b9060005260206000200160009054906101000a900473ffffffffffffffffffffffffffffffffffffffff16905080935050505090565b600181815481106102a457600080fd5b906000526020600020016000915054906101000a900473ffffffffffffffffffffffffffffffffffffffff1681565b60008054906101000a900473ffffffffffffffffffffffffffffffffffffffff1681565b60008060009054906101000a900473ffffffffffffffffffffffffffffffffffffffff1673ffffffffffffffffffffffffffffffffffffffff163373ffffffffffffffffffffffffffffffffffffffff161461035257600080fd5b47905090565b600044426001805490506040516020016103749392919061056c565b6040516020818303038152906040528051906020012060001c905090565b600073ffffffffffffffffffffffffffffffffffffffff82169050919050565b60006103bd82610392565b9050919050565b6103cd816103b2565b82525050565b60006020820190506103e860008301846103c4565b92915050565b600080fd5b6000819050919050565b610406816103f3565b811461041157600080fd5b50565b600081359050610423816103fd565b92915050565b60006020828403121561043f5761043e6103ee565b5b600061044d84828501610414565b91505092915050565b600061046182610392565b9050919050565b61047181610456565b82525050565b600060208201905061048c6000830184610468565b92915050565b61049b816103f3565b82525050565b60006020820190506104b66000830184610492565b92915050565b7f4e487b7100000000000000000000000000000000000000000000000000000000600052601260045260246000fd5b60006104f6826103f3565b9150610501836103f3565b925082610511576105106104bc565b5b828206905092915050565b7f4e487b7100000000000000000000000000000000000000000000000000000000600052603260045260246000fd5b6000819050919050565b610566610561826103f3565b61054b565b82525050565b60006105788286610555565b6020820191506105888285610555565b6020820191506105988284610555565b60208201915081905094935050505056fea264697066735822122000a08fa9f1886c447801973865a76b0ebcc553909b9d6952143cbf5e587b84aa64736f6c63430008110033",
					"opcodes": "PUSH1 0x80 PUSH1 0x40 MSTORE CALLVALUE DUP1 ISZERO PUSH2 0x10 JUMPI PUSH1 0x0 DUP1 REVERT JUMPDEST POP CALLER PUSH1 0x0 DUP1 PUSH2 0x100 EXP DUP2 SLOAD DUP2 PUSH20 0xFFFFFFFFFFFFFFFFFFFFFFFFFFFFFFFFFFFFFFFF MUL NOT AND SWAP1 DUP4 PUSH20 0xFFFFFFFFFFFFFFFFFFFFFFFFFFFFFFFFFFFFFFFF AND MUL OR SWAP1 SSTORE POP PUSH2 0x5DF DUP1 PUSH2 0x60 PUSH1 0x0 CODECOPY PUSH1 0x0 RETURN INVALID PUSH1 0x80 PUSH1 0x40 MSTORE PUSH1 0x4 CALLDATASIZE LT PUSH2 0x4E JUMPI PUSH1 0x0 CALLDATALOAD PUSH1 0xE0 SHR DUP1 PUSH4 0x2645209F EQ PUSH2 0xD0 JUMPI DUP1 PUSH4 0x35C1D349 EQ PUSH2 0xFB JUMPI DUP1 PUSH4 0x481C6A75 EQ PUSH2 0x138 JUMPI DUP1 PUSH4 0x4D9B3D5D EQ PUSH2 0x163 JUMPI DUP1 PUSH4 0x5EC01E4D EQ PUSH2 0x18E JUMPI PUSH2 0xCB JUMP JUMPDEST CALLDATASIZE PUSH2 0xCB JUMPI PUSH8 0xDE0B6B3A7640000 CALLVALUE EQ PUSH2 0x67 JUMPI PUSH1 0x0 DUP1 REVERT JUMPDEST PUSH1 0x1 CALLER SWAP1 DUP1 PUSH1 0x1 DUP2 SLOAD ADD DUP1 DUP3 SSTORE DUP1 SWAP2 POP POP PUSH1 0x1 SWAP1 SUB SWAP1 PUSH1 0x0 MSTORE PUSH1 0x20 PUSH1 0x0 KECCAK256 ADD PUSH1 0x0 SWAP1 SWAP2 SWAP1 SWAP2 SWAP1 SWAP2 PUSH2 0x100 EXP DUP2 SLOAD DUP2 PUSH20 0xFFFFFFFFFFFFFFFFFFFFFFFFFFFFFFFFFFFFFFFF MUL NOT AND SWAP1 DUP4 PUSH20 0xFFFFFFFFFFFFFFFFFFFFFFFFFFFFFFFFFFFFFFFF AND MUL OR SWAP1 SSTORE STOP JUMPDEST PUSH1 0x0 DUP1 REVERT JUMPDEST CALLVALUE DUP1 ISZERO PUSH2 0xDC JUMPI PUSH1 0x0 DUP1 REVERT JUMPDEST POP PUSH2 0xE5 PUSH2 0x1B9 JUMP JUMPDEST PUSH1 0x40 MLOAD PUSH2 0xF2 SWAP2 SWAP1 PUSH2 0x3D3 JUMP JUMPDEST PUSH1 0x40 MLOAD DUP1 SWAP2 SUB SWAP1 RETURN JUMPDEST CALLVALUE DUP1 ISZERO PUSH2 0x107 JUMPI PUSH1 0x0 DUP1 REVERT JUMPDEST POP PUSH2 0x122 PUSH1 0x4 DUP1 CALLDATASIZE SUB DUP2 ADD SWAP1 PUSH2 0x11D SWAP2 SWAP1 PUSH2 0x429 JUMP JUMPDEST PUSH2 0x294 JUMP JUMPDEST PUSH1 0x40 MLOAD PUSH2 0x12F SWAP2 SWAP1 PUSH2 0x477 JUMP JUMPDEST PUSH1 0x40 MLOAD DUP1 SWAP2 SUB SWAP1 RETURN JUMPDEST CALLVALUE DUP1 ISZERO PUSH2 0x144 JUMPI PUSH1 0x0 DUP1 REVERT JUMPDEST POP PUSH2 0x14D PUSH2 0x2D3 JUMP JUMPDEST PUSH1 0x40 MLOAD PUSH2 0x15A SWAP2 SWAP1 PUSH2 0x3D3 JUMP JUMPDEST PUSH1 0x40 MLOAD DUP1 SWAP2 SUB SWAP1 RETURN JUMPDEST CALLVALUE DUP1 ISZERO PUSH2 0x16F JUMPI PUSH1 0x0 DUP1 REVERT JUMPDEST POP PUSH2 0x178 PUSH2 0x2F7 JUMP JUMPDEST PUSH1 0x40 MLOAD PUSH2 0x185 SWAP2 SWAP1 PUSH2 0x4A1 JUMP JUMPDEST PUSH1 0x40 MLOAD DUP1 SWAP2 SUB SWAP1 RETURN JUMPDEST CALLVALUE DUP1 ISZERO PUSH2 0x19A JUMPI PUSH1 0x0 DUP1 REVERT JUMPDEST POP PUSH2 0x1A3 PUSH2 0x358 JUMP JUMPDEST PUSH1 0x40 MLOAD PUSH2 0x1B0 SWAP2 SWAP1 PUSH2 0x4A1 JUMP JUMPDEST PUSH1 0x40 MLOAD DUP1 SWAP2 SUB SWAP1 RETURN JUMPDEST PUSH1 0x0 DUP1 PUSH1 0x0 SWAP1 SLOAD SWAP1 PUSH2 0x100 EXP SWAP1 DIV PUSH20 0xFFFFFFFFFFFFFFFFFFFFFFFFFFFFFFFFFFFFFFFF AND PUSH20 0xFFFFFFFFFFFFFFFFFFFFFFFFFFFFFFFFFFFFFFFF AND CALLER PUSH20 0xFFFFFFFFFFFFFFFFFFFFFFFFFFFFFFFFFFFFFFFF AND EQ PUSH2 0x214 JUMPI PUSH1 0x0 DUP1 REVERT JUMPDEST PUSH1 0x3 PUSH1 0x1 DUP1 SLOAD SWAP1 POP LT ISZERO PUSH2 0x227 JUMPI PUSH1 0x0 DUP1 REVERT JUMPDEST PUSH1 0x0 PUSH2 0x231 PUSH2 0x358 JUMP JUMPDEST SWAP1 POP PUSH1 0x0 PUSH1 0x1 DUP1 SLOAD SWAP1 POP DUP3 PUSH2 0x246 SWAP2 SWAP1 PUSH2 0x4EB JUMP JUMPDEST SWAP1 POP PUSH1 0x0 PUSH1 0x1 DUP3 DUP2 SLOAD DUP2 LT PUSH2 0x25E JUMPI PUSH2 0x25D PUSH2 0x51C JUMP JUMPDEST JUMPDEST SWAP1 PUSH1 0x0 MSTORE PUSH1 0x20 PUSH1 0x0 KECCAK256 ADD PUSH1 0x0 SWAP1 SLOAD SWAP1 PUSH2 0x100 EXP SWAP1 DIV PUSH20 0xFFFFFFFFFFFFFFFFFFFFFFFFFFFFFFFFFFFFFFFF AND SWAP1 POP DUP1 SWAP4 POP POP POP POP SWAP1 JUMP JUMPDEST PUSH1 0x1 DUP2 DUP2 SLOAD DUP2 LT PUSH2 0x2A4 JUMPI PUSH1 0x0 DUP1 REVERT JUMPDEST SWAP1 PUSH1 0x0 MSTORE PUSH1 0x20 PUSH1 0x0 KECCAK256 ADD PUSH1 0x0 SWAP2 POP SLOAD SWAP1 PUSH2 0x100 EXP SWAP1 DIV PUSH20 0xFFFFFFFFFFFFFFFFFFFFFFFFFFFFFFFFFFFFFFFF AND DUP2 JUMP JUMPDEST PUSH1 0x0 DUP1 SLOAD SWAP1 PUSH2 0x100 EXP SWAP1 DIV PUSH20 0xFFFFFFFFFFFFFFFFFFFFFFFFFFFFFFFFFFFFFFFF AND DUP2 JUMP JUMPDEST PUSH1 0x0 DUP1 PUSH1 0x0 SWAP1 SLOAD SWAP1 PUSH2 0x100 EXP SWAP1 DIV PUSH20 0xFFFFFFFFFFFFFFFFFFFFFFFFFFFFFFFFFFFFFFFF AND PUSH20 0xFFFFFFFFFFFFFFFFFFFFFFFFFFFFFFFFFFFFFFFF AND CALLER PUSH20 0xFFFFFFFFFFFFFFFFFFFFFFFFFFFFFFFFFFFFFFFF AND EQ PUSH2 0x352 JUMPI PUSH1 0x0 DUP1 REVERT JUMPDEST SELFBALANCE SWAP1 POP SWAP1 JUMP JUMPDEST PUSH1 0x0 DIFFICULTY TIMESTAMP PUSH1 0x1 DUP1 SLOAD SWAP1 POP PUSH1 0x40 MLOAD PUSH1 0x20 ADD PUSH2 0x374 SWAP4 SWAP3 SWAP2 SWAP1 PUSH2 0x56C JUMP JUMPDEST PUSH1 0x40 MLOAD PUSH1 0x20 DUP2 DUP4 SUB SUB DUP2 MSTORE SWAP1 PUSH1 0x40 MSTORE DUP1 MLOAD SWAP1 PUSH1 0x20 ADD KECCAK256 PUSH1 0x0 SHR SWAP1 POP SWAP1 JUMP JUMPDEST PUSH1 0x0 PUSH20 0xFFFFFFFFFFFFFFFFFFFFFFFFFFFFFFFFFFFFFFFF DUP3 AND SWAP1 POP SWAP2 SWAP1 POP JUMP JUMPDEST PUSH1 0x0 PUSH2 0x3BD DUP3 PUSH2 0x392 JUMP JUMPDEST SWAP1 POP SWAP2 SWAP1 POP JUMP JUMPDEST PUSH2 0x3CD DUP2 PUSH2 0x3B2 JUMP JUMPDEST DUP3 MSTORE POP POP JUMP JUMPDEST PUSH1 0x0 PUSH1 0x20 DUP3 ADD SWAP1 POP PUSH2 0x3E8 PUSH1 0x0 DUP4 ADD DUP5 PUSH2 0x3C4 JUMP JUMPDEST SWAP3 SWAP2 POP POP JUMP JUMPDEST PUSH1 0x0 DUP1 REVERT JUMPDEST PUSH1 0x0 DUP2 SWAP1 POP SWAP2 SWAP1 POP JUMP JUMPDEST PUSH2 0x406 DUP2 PUSH2 0x3F3 JUMP JUMPDEST DUP2 EQ PUSH2 0x411 JUMPI PUSH1 0x0 DUP1 REVERT JUMPDEST POP JUMP JUMPDEST PUSH1 0x0 DUP2 CALLDATALOAD SWAP1 POP PUSH2 0x423 DUP2 PUSH2 0x3FD JUMP JUMPDEST SWAP3 SWAP2 POP POP JUMP JUMPDEST PUSH1 0x0 PUSH1 0x20 DUP3 DUP5 SUB SLT ISZERO PUSH2 0x43F JUMPI PUSH2 0x43E PUSH2 0x3EE JUMP JUMPDEST JUMPDEST PUSH1 0x0 PUSH2 0x44D DUP5 DUP3 DUP6 ADD PUSH2 0x414 JUMP JUMPDEST SWAP2 POP POP SWAP3 SWAP2 POP POP JUMP JUMPDEST PUSH1 0x0 PUSH2 0x461 DUP3 PUSH2 0x392 JUMP JUMPDEST SWAP1 POP SWAP2 SWAP1 POP JUMP JUMPDEST PUSH2 0x471 DUP2 PUSH2 0x456 JUMP JUMPDEST DUP3 MSTORE POP POP JUMP JUMPDEST PUSH1 0x0 PUSH1 0x20 DUP3 ADD SWAP1 POP PUSH2 0x48C PUSH1 0x0 DUP4 ADD DUP5 PUSH2 0x468 JUMP JUMPDEST SWAP3 SWAP2 POP POP JUMP JUMPDEST PUSH2 0x49B DUP2 PUSH2 0x3F3 JUMP JUMPDEST DUP3 MSTORE POP POP JUMP JUMPDEST PUSH1 0x0 PUSH1 0x20 DUP3 ADD SWAP1 POP PUSH2 0x4B6 PUSH1 0x0 DUP4 ADD DUP5 PUSH2 0x492 JUMP JUMPDEST SWAP3 SWAP2 POP POP JUMP JUMPDEST PUSH32 0x4E487B7100000000000000000000000000000000000000000000000000000000 PUSH1 0x0 MSTORE PUSH1 0x12 PUSH1 0x4 MSTORE PUSH1 0x24 PUSH1 0x0 REVERT JUMPDEST PUSH1 0x0 PUSH2 0x4F6 DUP3 PUSH2 0x3F3 JUMP JUMPDEST SWAP2 POP PUSH2 0x501 DUP4 PUSH2 0x3F3 JUMP JUMPDEST SWAP3 POP DUP3 PUSH2 0x511 JUMPI PUSH2 0x510 PUSH2 0x4BC JUMP JUMPDEST JUMPDEST DUP3 DUP3 MOD SWAP1 POP SWAP3 SWAP2 POP POP JUMP JUMPDEST PUSH32 0x4E487B7100000000000000000000000000000000000000000000000000000000 PUSH1 0x0 MSTORE PUSH1 0x32 PUSH1 0x4 MSTORE PUSH1 0x24 PUSH1 0x0 REVERT JUMPDEST PUSH1 0x0 DUP2 SWAP1 POP SWAP2 SWAP1 POP JUMP JUMPDEST PUSH2 0x566 PUSH2 0x561 DUP3 PUSH2 0x3F3 JUMP JUMPDEST PUSH2 0x54B JUMP JUMPDEST DUP3 MSTORE POP POP JUMP JUMPDEST PUSH1 0x0 PUSH2 0x578 DUP3 DUP7 PUSH2 0x555 JUMP JUMPDEST PUSH1 0x20 DUP3 ADD SWAP2 POP PUSH2 0x588 DUP3 DUP6 PUSH2 0x555 JUMP JUMPDEST PUSH1 0x20 DUP3 ADD SWAP2 POP PUSH2 0x598 DUP3 DUP5 PUSH2 0x555 JUMP JUMPDEST PUSH1 0x20 DUP3 ADD SWAP2 POP DUP2 SWAP1 POP SWAP5 SWAP4 POP POP POP POP JUMP INVALID LOG2 PUSH5 0x6970667358 0x22 SLT KECCAK256 STOP LOG0 DUP16 0xA9 CALL DUP9 PUSH13 0x447801973865A76B0EBCC55390 SWAP12 SWAP14 PUSH10 0x52143CBF5E587B84AA64 PUSH20 0x6F6C634300081100330000000000000000000000 "
				},
				"gasEstimates": {
					"creation": {
						"codeDepositCost": "300600",
						"executionCost": "24603",
						"totalCost": "325203"
					},
					"external": {
						"getbalance()": "2553",
						"manager()": "2533",
						"participants(uint256)": "4956",
						"random()": "infinite",
						"selectrandom()": "infinite"
					}
				},
				"methodIdentifiers": {
					"getbalance()": "4d9b3d5d",
					"manager()": "481c6a75",
					"participants(uint256)": "35c1d349",
					"random()": "5ec01e4d",
					"selectrandom()": "2645209f"
				}
			},
			"storageLayout": {
				"storage": [
					{
						"astId": 3,
						"contract": "LOTTERY PROJECT/lottery.sol:Lottery",
						"label": "manager",
						"offset": 0,
						"slot": "0",
						"type": "t_address"
					},
					{
						"astId": 6,
						"contract": "LOTTERY PROJECT/lottery.sol:Lottery",
						"label": "participants",
						"offset": 0,
						"slot": "1",
						"type": "t_array(t_address_payable)dyn_storage"
					}
				],
				"types": {
					"t_address": {
						"encoding": "inplace",
						"label": "address",
						"numberOfBytes": "20"
					},
					"t_address_payable": {
						"encoding": "inplace",
						"label": "address payable",
						"numberOfBytes": "20"
					},
					"t_array(t_address_payable)dyn_storage": {
						"base": "t_address_payable",
						"encoding": "dynamic_array",
						"label": "address payable[]",
						"numberOfBytes": "32"
					}
				}
			},
			"userdoc": {
				"kind": "user",
				"methods": {},
				"version": 1
			}
		}
	}
}